:100000000C9440000C945D000C945D000C94EB117A
:100010000C945D000C945D000C945D000C94BA147B
:100020000C945D000C945D000C945D000C945D00DC
:100030000C945D000C945D000C945D000C945D00CC
:100040000C945D000C945D000C945D000C945D00BC
:100050000C945D0020069F06DB06C007D307D60779
:10006000D9072608310846085B0870087B08900805
:10007000DA08DD081109440978097B09A209A609F3
:1000800011241FBECFE5D8E0DEBFCDBF13E0A0E650
:10009000B0E0E2E2F6E302C005900D92A03FB107A6
:1000A000D9F725E0A0EFB3E001C01D92A838B20750
:1000B000E1F70E94CD120C940F1B0C9400000F93DB
:1000C0001F938091F103811122C00E94EB140091D3
:1000D000F2031091F3032091F4033091F503DC0156
:1000E000CB01801B910BA20BB30B8C329140A1056D
:1000F000B10568F060E070E080E00E94260E60E0EC
:1001000070E081E00E94260E81E00E943A041F9177
:100110000F9108959091F1039093F0038093F10370
:10012000811113C068E37FEF0E94260E68EC70E037
:1001300081E00E94260E0E94EB146093F2037093FC
:10014000F3038093F4039093F5038BEA90E09F937D
:100150008F939F938F9383EB90E09F938F9381E096
:100160008F9383ED90E09F938F930E9441128DB700
:100170009EB709960FB6F8949EBF0FBE8DBF089527
:100180009091F7039093F6038093F703813079F011
:1001900018F0823009F12AC00E94EB146093FC032E
:1001A0007093FD038093FE039093FF031FC06AE6E4
:1001B0007FEF80E00E94260E6AE67FEF81E00E94DA
:1001C000260E0E94EB146093FC037093FD03809352
:1001D000FE039093FF030AC00E94EB146093FC039C
:1001E0007093FD038093FE039093FF03E091F70368
:1001F000F0E0EE0FFF1FE050FF4F81818F93808171
:100200008F93E091F603F0E0EE0FFF1FE050FF4FF9
:1002100081818F9380818F9383EB90E09F938F9365
:1002200081E08F9388ED90E09F938F930E9441121D
:100230008DB79EB709960FB6F8949EBF0FBE8DBFBF
:1002400008950F931F938091F703813009F448C0FC
:1002500020F0823009F4CDC0FAC00E94C70D172FDC
:10026000662389F08091100481110DC081E0809394
:1002700010040E94EB1460930004709301048093B7
:10028000020490930304112389F0809111048111D9
:100290000DC081E0809311040E94EB14609304046C
:1002A0007093050480930604909307040E94EB1456
:1002B0000091FC031091FD032091FE033091FF0398
:1002C000DC01CB01801B910BA20BB30B8634910593
:1002D000A105B10508F4BBC081E00E94C000B7C011
:1002E0000E94EB140091FC031091FD032091FE038A
:1002F0003091FF03DC01CB01801B910BA20BB30BF0
:1003000086399105A105B10508F4A1C080911004BA
:100310008823D9F0909111049923B9F068E37FEF15
:1003200080E00E94260E68EC70E081E00E94260EBC
:1003300081EE90E0A0E0B0E08093F8039093F903A1
:10034000A093FA03B093FB0350C08823D9F0909197
:100350001104911117C068EC70E080E00E94260E35
:1003600068E37FEF81E00E94260E8AEF90E0A0E034
:10037000B0E08093F8039093F903A093FA03B0934D
:10038000FB0333C081111BC0809111048823B9F095
:1003900068E37FEF80E00E94260E68EC70E081E069
:1003A0000E94260E82E890E0A0E0B0E08093F8037F
:1003B0009093F903A093FA03B093FB0316C068E38C
:1003C0007FEF80E00E94260E68EC70E081E00E94E2
:1003D000260E81EE90E0A0E0B0E08093F8039093C9
:1003E000F903A093FA03B093FB0382E00E94C000DC
:1003F0002EC00E94EB140091FC031091FD0320918C
:10040000FE033091FF03DC01CB01801B910BA20B9B
:10041000B30B0091F8031091F9032091FA03309186
:10042000FB0380179107A207B30788F060E070E034
:1004300080E00E94260E60E070E081E00E94260EBF
:10044000E0E1F4E01082118281E00E943A041F9101
:100450000F910895CF92DF92EF92FF920F931F9327
:10046000CF93DF9300D000D000D0CDB7DEB70E948D
:10047000BC0B142F29833A835C836D8341110AC01E
:100480000E94EB146093620470936304809364048D
:100490009093650489810A814C81FD81E82FE00FEA
:1004A000E10FE40FEF0FE0936E0490E09C01220F48
:1004B000331F220F331F820F931F092E000CAA0B2C
:1004C000BB0B10E0000F111F012E000C220B330B91
:1004D000800F911FA21FB31F50E051954195510904
:1004E000440F551F052E000C660B770B840F951FCC
:1004F000A61FB71F4F2F5BEF540390011124A901D2
:10050000330F660B770B9A01AB01280F391F4A1F77
:100510005B1F20935E0430935F044093600450930C
:100520006104EE2359F1609150047091510480915F
:100530005204909153040E947F172E2F30E040E028
:1005400050E00E948F1720935E0430935F04409325
:1005500060045093610420935A0430935B044093E9
:100560005C0450935D040E94EB14609366047093E6
:10057000670480936804909369043CC00E94EB1464
:100580000091660410916704209168043091690419
:10059000DC01CB01801B910BA20BB30B883B9B4072
:1005A000A105B105B8F010925E0410925F0410929C
:1005B000600410926104E4E1F4E0148E158E168E4E
:1005C000178E10A211A212A213A2148A158A168ADB
:1005D000178A10C080915A0490915B04A0915C042A
:1005E000B0915D0480935E0490935F04A0936004D7
:1005F000B093610480916E04882339F180915E0488
:1006000090915F04A0916004B0916104892B8A2BC2
:100610008B2BD9F48FEF90E0A0E0B0E080935604EC
:1006200090935704A0935804B0935904E4E1F4E084
:10063000148E158E168E178E10A211A212A213A25E
:10064000148A158A168A178A44C00E94EB140091F6
:100650006204109163042091640430916504DC010C
:10066000CB01801B910BA20BB30B843F9140A105E2
:10067000B10518F18FEF90E0A0E0B0E08093560450
:1006800090935704A0935804B093590410925E04B9
:1006900010925F041092600410926104E4E1F4E0AF
:1006A000148E158E168E178E10A211A212A213A2EE
:1006B000148A158A168A178A0CC086E490E0A0E096
:1006C000B0E08093560490935704A0935804B093DD
:1006D000590440915E0450915F04609160047091F0
:1006E000610484E194E00E94D80E6B017C0180914A
:1006F000560490915704A0915804B0915904FF9268
:10070000EF92DF92CF92BF93AF939F938F932091FD
:1007100061042F93209160042F9320915F042F9305
:1007200020915E042F93AC01BD014C195D096E0947
:100730007F097F936F935F934F938C0D9D1DAE1D2B
:10074000BF1DBF93AF939F938F9386E091E09F93DC
:100750008F9382E08F9384E391E09F938F930E9425
:10076000411206E514E0F801608171816C0D7D1D78
:1007700080E00E94260EF801608171816C197D096C
:1007800081E00E94260E0FB6F894DEBF0FBECDBFEB
:1007900026960FB6F894DEBF0FBECDBFDF91CF9186
:1007A0001F910F91FF90EF90DF90CF900895E4E1BB
:1007B000F4E08AE090E0A0E0B0E084AF95AFA6AFAF
:1007C000B7AF1486158616861786108A118A128A84
:1007D000138A148A158A168A178A10A211A212A2E5
:1007E00013A2148E158E168E178E108E118E128EE9
:1007F000138E14A615A616A617A610A611A612A645
:1008000013A614A215A216A217A282E390E0A0E0FC
:10081000B0E080839183A283B38314821582168211
:10082000178210861186128613868CE291E0A0E072
:10083000B0E080AB91ABA2ABB3AB81E09FEFAFEF89
:10084000BFEF84AB95ABA6ABB7AB8FEF90E0A0E06A
:10085000B0E080AF91AFA2AFB3AF86E490E0A0E08C
:10086000B0E08093560490935704A0935804B0933B
:10087000590408959091550490935404809355041D
:10088000813051F40E94EB1460936A0470936B04FE
:1008900080936C0490936D04E0915504F0E0EE0FAA
:1008A000FF1FEE5AFE4F81818F9380818F93E091DD
:1008B0005404F0E0EE0FFF1FEE5AFE4F81818F933C
:1008C00080818F9383EB90E09F938F9381E08F9350
:1008D00084E391E09F938F930E9441128DB79EB75E
:1008E00009960FB6F8949EBF0FBE8DBF0895FF9274
:1008F0000F931F93CF93DF9300D000D000D0CDB7DC
:10090000DEB780915504813059F038F0823009F417
:100910004AC0833009F44AC04BC00E94CC0848C08A
:100920000E942A020E94DD0B811142C00E94BC0B72
:100930007E830E94C70D062FF72E1E8111110AC05B
:100940000E94EB1460936A0470936B0480936C04B0
:1009500090936D041123E1F00E94EB1400916A045E
:1009600010916B0420916C0430916D04DC01CB017B
:10097000801B910BA20BB30B8C329140A105B105EA
:10098000B8F080E00E948A0083E00E943A0410C020
:10099000011102C0FF2061F080E00E94C00082E0EF
:1009A0000E943A0405C00E94210102C00E945F001B
:1009B00026960FB6F894DEBF0FBECDBFDF91CF9164
:1009C0001F910F91FF900895CF93DF93D62FC42FDF
:1009D000682F80E00E94080C6D2F81E00E94080CB7
:1009E0006C2F82E00E94080CDF91CF9108950F9345
:1009F0000E94D70302E022E036E045E050E060E0EC
:100A000070E08AE591E00E94B10F82E691E09F9349
:100A10008F9382E08F938AE591E09F938F930E945A
:100A200041120F900F900F900F900F900F9108951B
:100A30009091700490936F0480937004843049F017
:100A400018F4833049F035C0853061F08630D9F034
:100A500030C00E94E0112DC060E08EE691E00E945F
:100A60003F1027C0809179040E94140860E080E064
:100A70000E94080C61E081E00E94080C60E082E0C6
:100A80000E94080C16C060E070E080E00E94260E14
:100A900060E070E081E00E94260E61E080E00E944C
:100AA000080C60E081E00E94080C60E082E00E9497
:100AB000080CE0917004F0E0EE0FFF1FED5CFD4FBD
:100AC00081818F9380818F93E0916F04F0E0EE0F2E
:100AD000FF1FED5CFD4F81818F9380818F9383EBAE
:100AE00090E09F938F9381E08F938AE591E09F93AD
:100AF0008F930E9441128DB79EB709960FB6F89456
:100B00009EBF0FBE8DBF08950F931F93CF930E947A
:100B1000F40AC82F80917C04C81751F00E94EB148E
:100B200060937504709376048093770490937804AF
:100B3000C1110AC00E94EB14609371047093720497
:100B400080937304909374040E94EB1400917104D9
:100B5000109172042091730430917404DC01CB0174
:100B6000801B910BA20BB30B893E9340A105B105ED
:100B7000A0F080917004833080F060E080E00E94FB
:100B8000080C60E081E00E94080C60E082E00E94B6
:100B9000080C84E00E94180531C00E94EB140091FB
:100BA0007504109176042091770430917804DC016B
:100BB000CB01801B910BA20BB30BC397A105B10511
:100BC000D8F080917B04C817B9F0C0937B04C111A1
:100BD00013C00E94EB1460937104709372048093AD
:100BE000730490937404809179048F5F80937904E7
:100BF000873010F010927904C0937C04CF911F913C
:100C00000F910895AF92BF92CF92DF92EF92FF9231
:100C10000F931F93CF93DF93CDB7DEB766970FB6D1
:100C2000F894DEBF0FBECDBF8091700490E0873096
:100C3000910508F0C9C1FC01E65DFF4F0C94AE17A9
:100C40000E948405809179048823F1F060E080E0BF
:100C50000E94080C60E081E00E94080C60E082E0E5
:100C60000E94080C1092790410927C0410927B046C
:100C70001092750410927604109277041092780402
:100C800081E00E941805A0C1CE0101960E946C0A65
:100C90008A85882309F498C1CE80DF80E884F984AE
:100CA00020E030E040E451E4C701B6010E9468153D
:100CB0008823ECF420E030E048E251E4C701B601BB
:100CC0000E94C01618169CF481E080937A0460E0BC
:100CD00080E00E94080C60E081E00E94080C60E067
:100CE00082E00E94080C81E00E9418056DC120E09E
:100CF00030E048E251E4C701B6010E9468151816B9
:100D000064F081E080937A0425E044E650E068EEE8
:100D100073E080E00E944D0C57C110927A0460E0AD
:100D200080E00E94080C60E081E00E94080C60E016
:100D300082E00E94080C81E00E94180545C10E94D3
:100D40008405809179048823F1F060E080E00E94BE
:100D5000080C60E081E00E94080C60E082E00E94E4
:100D6000080C1092790410927C0410927B0410926B
:100D7000750410927604109277041092780482E041
:100D80000E94180521C10E942212882339F00E9476
:100D9000D30C0E94230D0E94FB0C16C10E94C908AF
:100DA000882329F00E94D30C0E94FB0C0DC182E025
:100DB0000E94180509C10E9484050E94BC0B298B62
:100DC0003A8B4B8B5C8B6D8B7E8B0E94C70D162FE5
:100DD000072FF82EE92ECE0101960E946C0A0E9480
:100DE0009611D62EC72EB82EA92E62E081E00E9461
:100DF0006314FB81EA8179816E895D894C893B8925
:100E00002A899989AF92BF92CF92DF921F928F93D6
:100E10008D818F938C818F931F92FF931F92EF93FD
:100E20001F927F931F926F931F925F931F924F9316
:100E30001F923F931F922F931F929F931F92EF92A7
:100E40001F92FF921F920F931F921F9386E791E0CC
:100E50009F938F931F928AE591E09F938F930E94B7
:100E60004112809179040FB6F894DEBF0FBECDBF5A
:100E70008823F1F060E080E00E94080C60E081E0EF
:100E80000E94080C60E082E00E94080C1092790435
:100E900010927C0410927B041092750410927604D8
:100EA000109277041092780483E00E9418058CC099
:100EB00080917A04882391F10E94D30C0E94BC0B8C
:100EC0003C874D875E876F87788B21110AC031116F
:100ED00008C0411106C0511104C0611102C077233E
:100EE00029F061E082E00E94080C04C060E082E02A
:100EF0000E94080C0E94C70D611106C0711104C048
:100F0000811102C0992329F061E081E00E94080C60
:100F10005BC060E081E00E94080C56C00E94FB0CA0
:100F20000E94BC0B3C874D875E876F87788B2111B1
:100F30000AC0311108C0411106C0511104C061112D
:100F400002C0772329F061E082E00E94080C04C00F
:100F500060E082E00E94080C0E94C70D611106C08B
:100F6000711104C0811102C0992329F061E080E071
:100F70000E94080C29C060E080E00E94080C24C098
:100F80008091790490E0FC01EE0FFF1F8E0F9F1FF0
:100F9000FC01EF5BFD4F4281618180810E94E4048E
:100FA0000E94840511C00E94230D0EC00E94770488
:100FB0000BC060E070E080E00E94260E60E070E010
:100FC00081E00E94260EFFCF66960FB6F894DEBF32
:100FD0000FBECDBFDF91CF911F910F91FF90EF908A
:100FE000DF90CF90BF90AF900895CF93DF9300D064
:100FF00000D000D0CDB7DEB70E94BC0B211108C0D5
:10100000311106C0411104C0511102C0662319F00C
:1010100081E00E943A0426960FB6F894DEBF0FBE18
:10102000CDBFDF91CF910895E82F80917E0480930A
:101030007D04E0937E048E2F90E08730910508F0C8
:1010400079C0FC01EF5CFF4F0C94AE1768E37FEFB3
:1010500080E00E94260E68EC70E081E00E94260E7F
:1010600069C061E07FEF80E00E94260E6FEF70E0C4
:1010700081E00E94260E0E94EB1460937F0470931F
:101080008004809381049093820454C061E07FEFD8
:1010900080E00E94260E6FEF70E081E00E94260E35
:1010A0000E94EB1460937F0470938004809381040A
:1010B000909382043FC06FEF70E080E00E94260EA4
:1010C00061E07FEF81E00E94260E0E94EB146093A6
:1010D0007F047093800480938104909382042AC0DB
:1010E0006FEF70E080E00E94260E61E07FEF81E00C
:1010F0000E94260E1FC068E37FEF80E00E94260E4C
:1011000068EC70E081E00E94260E0E94EB14609370
:101110007F047093800480938104909382040AC0BA
:101120006FEF70E080E00E94260E6FEF70E081E0CC
:101130000E94260EE0917E04F0E0EE0FFF1FE355C3
:10114000FD4F81818F9380818F93E0917D04F0E04A
:10115000EE0FFF1FE355FD4F81818F9380818F93A9
:1011600083EB90E09F938F9381E08F9381E491E0F4
:101170009F938F930E9441128DB79EB709960FB629
:10118000F8949EBF0FBE8DBF089581E080938304C5
:1011900008958091830408950F931F9380917E0496
:1011A00090E08830910508F0F5C0FC01E85CFF4F45
:1011B0000C94AE170E94F507EDC00E94EB1400914D
:1011C0007F04109180042091810430918204DC011D
:1011D000CB01801B910BA20BB30B853A9105A105A6
:1011E000B105E0F00E94C908882359F060E070E082
:1011F00080E00E94260E60E070E081E00E94260EF2
:10120000FFCF6FEF70E080E00E94260E6FEF70E07E
:1012100081E00E94260E81E00E943A040E94F507B8
:10122000B9C00E94EB1400917F04109180042091BA
:10123000810430918204DC01CB01801B910BA20B55
:10124000B30B883C9105A105B10508F4A3C00E9429
:10125000C908882359F060E070E080E00E94260E03
:1012600060E070E081E00E94260EFFCF6FEF70E03B
:1012700080E00E94260E6FEF70E081E00E94260E53
:1012800081E00E943A0486C00E94EB1400917F0422
:10129000109180042091810430918204DC01CB0103
:1012A000801B910BA20BB30B813E9105A105B105EB
:1012B000E0F00E94C908882359F060E070E080E007
:1012C0000E94260E60E070E081E00E94260EFFCFB3
:1012D0006FEF70E080E00E94260E6FEF70E081E01B
:1012E0000E94260E81E00E943A040E94F50752C037
:1012F0000E94F5074FC00E94EB1400917F041091EB
:1013000080042091810430918204DC01CB01801B98
:10131000910BA20BB30B803F9105A105B105D0F154
:1013200060E070E080E00E94260E60E070E081E006
:101330000E94260E0E94C90881112CC087E00E94DD
:10134000140828C081E00E943A0424C00E94EB14D3
:1013500000917F04109180042091810430918204D7
:10136000DC01CB01801B910BA20BB30B883A914699
:10137000A105B10568F06FEF70E080E00E94260ED5
:101380006FEF70E081E00E94260E81E00E943A0437
:101390000E94F5071F910F910895CF92DF92EF926F
:1013A000FF9287B1807F87B987B1836087B986B1A3
:1013B000806486B93699FECF64B175B180E090E063
:1013C0000E940E1620919604309197044091980443
:1013D000509199040E946D152091920430919304CC
:1013E00040919404509195040E94FC146B017C017F
:1013F0006093920470939304809394049093950463
:1014000060919A046F5F60939A04643100F170E018
:1014100080E090E00E940E169B01AC01C701B6016E
:101420000E946D1560938E0470938F0480939004D6
:101430009093910410929A04109292041092930443
:10144000109294041092950481E080938D04FF9093
:10145000EF90DF90CF90089589E295EDA2E8B2E495
:101460008093960490939704A0939804B093990462
:1014700008950F9387B1806487B986B1876086B974
:1014800086B1806886B986B1806486B987B1836089
:1014900087B98AB3877F8ABB0E942C0A02E02DECB1
:1014A00039E04AE050E060E070E08EE691E00E94B2
:1014B000B10F82E691E09F938F9382E08F938EE647
:1014C00091E09F938F930E9441120F900F900F9085
:1014D0000F900F900F9108958F929F92AF92BF92AD
:1014E000CF92DF92EF92FF920F931F93CF93DF93F0
:1014F000EC01C0908E04D0908F04E0909004F090A6
:101500009104C701B6010E94DF158B0180E090E0D5
:101510000E940E169B01AC01C701B6010E94FB148C
:1015200020E030E048EC52E40E94C5160E943217D9
:101530000E94DF15AB016436710521F40F5F1F4F68
:1015400040E050E09A01ADECBCEC0E94B4175C01A5
:10155000B694A794B694A794B694A7949501220F35
:10156000331FC501880F991F880F991F880F991F76
:10157000820F931F481B590BE4E8F4E00083A1821B
:10158000428384B195B194838383C582D682E782F6
:10159000F0868AE0DE0101900D928A95E1F7CE0196
:1015A000DF91CF911F910F91FF90EF90DF90CF903F
:1015B000BF90AF909F908F90089541E060E082E0EF
:1015C0000E94F91282E691E09F938F9382E08F93BD
:1015D0008DEB92E09F938F930E9441120F900F909A
:1015E0000F900F900F90089560E082E00E946314C6
:1015F00091E08927089541E060E082E00E94F912BD
:101600000E94F40A882331F00E94C50880E00E94FD
:10161000361203C086E00E9436120E94F40A81113D
:10162000FCCF089540E033C0842F90E0FC01EE0F22
:10163000FF1FEE0FFF1FE80FF91FEB59FF4FA081AF
:10164000B1812C9130E0038002C0359527950A9432
:10165000E2F761E070E020FF02C060E070E0FC01B2
:10166000EE0FFF1FEE0FFF1FE80FF91FEB59FF4FA3
:101670002481269FF001279FF00D112421E0EF2BFC
:1016800009F420E0FC01E556FB4F20834F5F453015
:1016900058F2E0E6F0E0A081B1818C9190E0038007
:1016A00002C0959587950A94E2F721E030E080FF2B
:1016B00002C020E030E080916400829FA001839FFF
:1016C000500D112481E0452B09F480E08093A004A3
:1016D00008950F93CF93DF93C0E011C0EC2FF0E09B
:1016E000CF01880F991F880F991FE80FF91FEB5939
:1016F000FF4F40E0638182810E94F912CF5FC530C5
:1017000068F3C0E6D0E040E06B818A810E94F91264
:10171000E5E6F0E083E390E09183808389E390E065
:101720009683858393878287908B8787958B848B1D
:1017300080E390E09983888302E022E13BE045E08A
:1017400050E060E070E084EC92E00E94B10F82E62D
:1017500091E09F938F9382E08F9384EC92E09F932C
:101760008F930E9441120F900F900F900F900F9047
:10177000DF91CF910F910895CF93DF9300D000D0E8
:1017800000D0CDB7DEB786E0EBE9F4E0DE011196DC
:1017900001900D928A95E1F729813A814B815C8114
:1017A0006D817E8180E090E026960FB6F894DEBFD2
:1017B0000FBECDBFDF91CF910895CF93DF93ABE9FB
:1017C000B4E0DC91E0E6F0E0C48111962C91119731
:1017D000818513966C911397538912969C91129759
:1017E000768514964C91308D289F802D1124282FBA
:1017F000DC9F200D1124979F802D1124659F800D63
:101800001124820F439F800D1124DF91CF91089501
:101810008330A8F4462F813049F018F0823059F017
:10182000089566E083E00E94BD13089564E083E0BC
:101830000E94BD13089563E083E00E94BD130895E4
:1018400042E066E083E00E94F91242E064E083E057
:101850000E94F91242E063E083E00E94F91260E026
:1018600080E00E94080C60E081E00E94080C60E0CB
:1018700082E00E94080C82E691E09F938F9382E0C1
:101880008F938DEC92E09F938F930E9441120F9063
:101890000F900F900F900F9008958F929F92AF929C
:1018A000BF92EF92FF920F931F93CF93DF93F82E87
:1018B000EB018A01E22E0E94EB142091B604211163
:1018C00006C0BE0180E090E021E02093B604809045
:1018D000B2049090B304A090B404B090B504AB01EE
:1018E000BC01481959096A097B09CE01A0E0B0E0A2
:1018F000481759076A077B0708F44AC08091B1046A
:1019000090E02E2D30E0220F331F82179307A0F5B1
:101910000E94EB148090AD049090AE04A090AF04B0
:10192000B090B004DC01CB0188199909AA09BB0960
:1019300020E030E080179107A207B30748F18091BB
:10194000B10480FD05C061E08F2D0E94080C04C029
:1019500060E08F2D0E94080C8091B1048F5F80930E
:10196000B1040E94EB146093AD047093AE048093B5
:10197000AF049093B0040CC01092B1040E94EB1419
:101980006093B2047093B3048093B4049093B5044D
:10199000DF91CF911F910F91FF90EF90BF90AF908B
:1019A0009F908F9008950F931F930E94EB140091C6
:1019B000A9041091AA042091AB043091AC04DC017D
:1019C000CB01801B910BA20BB30B85369105A105B2
:1019D000B10570F066E083E00E942D140E94EB14C4
:1019E0006093A9047093AA048093AB049093AC0411
:1019F0001F910F9108950F931F930E94EB14009174
:101A0000A5041091A6042091A7043091A804DC013C
:101A1000CB01801B910BA20BB30B85369105A10561
:101A2000B10570F064E083E00E942D140E94EB1475
:101A30006093A5047093A6048093A7049093A804D0
:101A40001F910F9108950F931F930E94EB14009123
:101A5000A1041091A2042091A3043091A404DC01FC
:101A6000CB01801B910BA20BB30B85369105A10511
:101A7000B10570F063E083E00E942D140E94EB1426
:101A80006093A1047093A2048093A3049093A40490
:101A90001F910F91089540E033C0842F90E0FC0126
:101AA000EE0FFF1FEE0FFF1FE80FF91FE258FF4F69
:101AB000A081B1812C9130E0038002C0359527953B
:101AC0000A94E2F761E070E020FF02C060E070E09D
:101AD000FC01EE0FFF1FEE0FFF1FE80FF91FE2588A
:101AE000FF4F2481269FF001279FF00D112421E054
:101AF000EF2B09F420E0FC01E954FB4F20834F5FFA
:101B0000443058F208950F93CF93C0E011C0EC2FEA
:101B1000F0E0CF01880F991F880F991FE80FF91F78
:101B2000E258FF4F40E0638182810E94F912CF5F4B
:101B3000C43068F3EEE7F0E023E330E03183208344
:101B400086E390E09683858333872287908B87870F
:101B500002E02BE43DE045E050E060E070E08DE421
:101B600091E00E94B10F82E691E09F938F9382E013
:101B70008F938DE491E09F938F930E9441120F9079
:101B80000F900F900F900F90CF910F91089560914B
:101B9000B7047091B8048091B9049091BA04089583
:101BA000CF93DF93D0E01AC08D2F90E0FC01EE0FB1
:101BB000FF1FE80FF91FEC0FF11DEE0FFF1FEE0FD7
:101BC000FF1FEE56FF4F42E0638182810E94F912AF
:101BD000CF5F01C0C0E0C33038F3DF5FD230D0F355
:101BE000E2E9F0E088E390E0918380838BE390E08A
:101BF000958384839187808782E390E095878487AB
:101C000085E390E0918B808B958B848B83B789766D
:101C100083BF83B7896683BF85B5897685BD85B562
:101C2000896685BD82E691E09F938F9382E08F93D2
:101C300081ED92E09F938F930E9441120F900F903D
:101C40000F900F900F90DF91CF910895EF92FF9238
:101C50000F931F93CF93DF936F3F71052CF4623086
:101C60009FEF790724F005C06FEF70E002C061E0DC
:101C70007FEF161617060CF040C0282F30E08901C0
:101C8000000F111FD801A20FB31FAA0FBB1FAA0F6D
:101C9000BB1FAE56BF4F1496ED90FC901597E70111
:101CA000F88141E050E0EA0117960C90179702C0C6
:101CB000CC0FDD1F0A94E2F79C2F90959F23F7012C
:101CC000908318960D90BC91A02D9C91F801E20F85
:101CD000F31FEE0FFF1FEE0FFF1FEE56FF4F0384A3
:101CE00002C0440F551F0A94E2F7492B4C9381110F
:101CF00002C06CBF56C063BD54C077230CF04CC00B
:101D0000282F30E0F901EE0FFF1FDF01A20FB31FF4
:101D1000AA0FBB1FAA0FBB1FAE56BF4F14960D9143
:101D20001C911597E801988141E050E0EA0117966F
:101D30000C90179702C0CC0FDD1F0A94E2F79C2B82
:101D4000E801988318960D90BC91A02D9C91E20F0C
:101D5000F31FEE0FFF1FEE0FFF1FEE56FF4F038422
:101D600002C0440F551F0A94E2F7409549234C9353
:101D7000811109C0CB01992324F488279927861B58
:101D8000970B8CBF0EC0CB01992324F48827992789
:101D9000861B970B83BD05C0811102C01CBE01C00C
:101DA00013BCDF91CF911F910F91FF90EF90089599
:101DB0004F925F926F927F928F929F92AF92BF925B
:101DC000CF92DF92EF92FF920F931F93CF93DF9307
:101DD00000D000D000D0CDB7DEB79E838D83FC014C
:101DE000C484D584E684F784C41AD50AE60AF70ABF
:101DF000C08AD18AE28AF38AC08ED18EE28EF38EB7
:101E0000848D958DA68DB78D8C0D9D1DAE1DBF1D2E
:101E1000848F958FA68FB78F448955896689778976
:101E200097018601041B150B260B370B09831A83B8
:101E30002B833C8300A311A322A333A340A951A960
:101E400062A973A984179507A607B7072CF0448FDA
:101E5000558F668F778F12C070956095509541951C
:101E60005F4F6F4F7F4F481759076A077B0734F062
:101E7000ED81FE81448F558F668F778FED81FE81D6
:101E80006081718182819381A70196010E947F17F1
:101E90002B013C0164A375A386A397A324813581FC
:101EA00046815781648D758D868D978D0E947F1731
:101EB0004B015C0160A771A782A793A7608571851C
:101EC0008285938529813A814B815C810E947F17AD
:101ED00064A775A786A797A7840C951CA61CB71C9A
:101EE000680D791D8A1D9B1D24AD35AD46AD57ADDE
:101EF0000E948F17822E932EA42EB52EED81FE8187
:101F0000C48AD58AE68AF78A60AD71AD82AD93AD99
:101F100086169706A806B9066CF464A975A986A961
:101F200097A9681579058A059B0524F4622F732FFC
:101F3000842F952F26960FB6F894DEBF0FBECDBF27
:101F4000DF91CF911F910F91FF90EF90DF90CF9095
:101F5000BF90AF909F908F907F906F905F904F90C9
:101F600008956F927F928F929F92AF92BF92CF927D
:101F7000DF92EF92FF920F931F93CF93DF93182F6F
:101F8000792E4A015B01790180E090E0DC011BC001
:101F90008A309105A105B10598F087ED92E09F93F5
:101FA0008F9385E08F938AEF92E09F938F930E94A7
:101FB00041120F900F900F900F900F9081E050C042
:101FC0000196A11DB11D23E1289FF001299FF00D6D
:101FD0001124E154FB4F25813681232BC9F60F2EA6
:101FE000FFEBCF2EF4E0DF2EF02DEF01662463949B
:101FF000678A0E94EB14DC01CB01880D991DAA1D94
:10200000BB1D8F87988BA98BBA8B1C877D868F828F
:102010009886A986BA86FE82ED820E87F6018081B7
:102020009181A281B3810196A11DB11D808391830D
:10203000A283B3837F921F9384E093E09F938F9357
:102040006F928AEF92E09F938F930E9441128DB717
:102050009EB707960FB6F8949EBF0FBE8DBF80E067
:10206000DF91CF911F910F91FF90EF90DF90CF9074
:10207000BF90AF909F908F907F906F900895CF9278
:10208000DF92EF92FF921F93CF93DF93C82FD92F48
:10209000162FC12CD12C76013FC083E18C9DF0011D
:1020A0008D9DF00D1124E154FB4F6C2F7D2F848505
:1020B00095850E94F017892B51F583E18C9DF001E5
:1020C0008D9DF00D1124E154FB4F178B112319F056
:1020D00084E193E002C08CE193E09F938F93DF93C0
:1020E000CF9385E293E09F938F9381E08F938AEF64
:1020F00092E09F938F930E9441128DB79EB70996ED
:102100000FB6F8949EBF0FBE8DBF80E014C09FEF46
:10211000C91AD90AE90AF90A8091BF049091C0044A
:10212000A091C104B091C204C816D906EA06FB0604
:1021300008F4B3CF82E0DF91CF911F91FF90EF9031
:10214000DF90CF90089580E090E0DC0118C023E19B
:10215000289FF001299FF00D1124E154FB4F1786B1
:10216000108A118A128A15861486178210861186A3
:1021700012861386168215820196A11DB11D8A3022
:102180009105A105B10518F3EFEBF4E0108211827F
:102190001282138282E0848322E631E03F932F9300
:1021A0008F938AEF92E09F938F930E9441120F903A
:1021B0000F900F900F900F9008954F925F926F9233
:1021C0007F928F929F92AF92BF92CF92DF92EF92C7
:1021D000FF921F93CF93DF930E94EB144B015C019E
:1021E000C12CD12C760174C083E18C9DF0018D9DB2
:1021F000F00D1124E154FB4F96858091C30489179B
:1022000008F461C083E18C9DF0018D9DF00D1124D7
:10221000E154FB4F8789882309F455C083E18C9DE5
:10222000F0018D9DF00D1124E154FB4F85819681C5
:10223000892B09F448C00E94EB1423E12C9DF00186
:102240002D9DF00D1124E154FB4F47845088618887
:1022500072886415750586059705A8F10E94EB1430
:1022600013E11C9DE0011D9DD00D1124C154DB4FD5
:102270004F80588469847A84DC01CB01840D951DDC
:10228000A61DB71D8F87988BA98BBA8B0E94EB1464
:102290002B013C01ED81FE8109950E94EB14DC01CC
:1022A000CB0184199509A609B70996012F5F3F4F05
:1022B000129FF001139FF00D1124E154FB4F808316
:1022C0009183A283B3838FEFC81AD80AE80AF80A69
:1022D0008091BF049091C004A091C104B091C20448
:1022E000C816D906EA06FB0608F47ECF0E94EB1456
:1022F000DC01CB0188199909AA09BB098093BB04A9
:102300009093BC04A093BD04B093BE04DF91CF9121
:102310001F91FF90EF90DF90CF90BF90AF909F9074
:102320008F907F906F905F904F9008956091BB0465
:102330007091BC048091BD049091BE0408958BB748
:1023400080628BBF08958BB78F7D8BBF08958AB74E
:1023500080628ABF089584B7806484BF08957894AA
:10236000089562E081E00E946314882321F081E0F7
:1023700080938205089510928205089541E062E0FD
:1023800081E00E94F9122FEF81EE94E0215080400D
:102390009040E1F700C000000E94B11182E691E098
:1023A0009F938F9382E08F9381E393E09F938F932A
:1023B0000E9441120F900F900F900F900F90089570
:1023C0000E94A3110E94AB110E94A7110E949F11AD
:1023D0000E94AF1108951F920F920FB60F92112411
:1023E0002F933F934F935F936F937F938F939F931D
:1023F000AF93BF93EF93FF938BB78F7D8BBF84B762
:102400008F7B84BF8AB780628ABF8BB780628BBFA5
:1024100078948091AA0091E0980F9093AA000E946E
:102420001805FF91EF91BF91AF919F918F917F918F
:102430006F915F914F913F912F910F900FBE0F9031
:102440001F9018958091820508955D9BFECF8CB9F1
:102450000895CF93DF93EC0103C00E9425122196CB
:1024600088818111FACFDF91CF9108958093830500
:10247000089510BC80E189B988E18AB986E880BDF9
:102480000895CF92DF92FF920F931F93CF93DF9324
:10249000CDB7DEB7CD59D1090FB6F894DEBF0FBE68
:1024A000CDBFC955DF4F0881C75AD040C855DF4F4F
:1024B000F880C85AD040C755DF4F1881C95AD0405C
:1024C00080918305181708F459C00E94EB149F935C
:1024D0008F937F936F938DE393E09F938F93CE01C0
:1024E00001966C019F938F930E94F917C6010E9479
:1024F0002912E12FF0E0EE0FFF1FEF52FC4F818118
:102500008F9380818F9385E493E09F938F936E01E7
:1025100099E0C90ED11CDF92CF920E94F917C60133
:102520000E942912FF920F938BE493E09F938F9365
:102530008E01025F1F4F1F930F930E94F917C8016E
:102540000E9429129E0124553F4FC655DF4F4881F6
:102550005981CA5AD0406FEF70E0CE014E960E946A
:102560001B18CE014E960E94291286E593E00E9428
:1025700029120FB6F894DEBF0FBECDBFC356DF4F92
:102580000FB6F894DEBF0FBECDBFDF91CF911F9184
:102590000F91FF90DF90CF9008950E94FB0A0E9458
:1025A00039120E94DF140E94A3100E94200C0E9486
:1025B000BE110E94690B0E94830D0E94D00D0E94E3
:1025C000DD0A0E94390A0E94F7048DED93E09F9383
:1025D0008F9382E08F938BEE93E09F938F930E9473
:1025E00041120F900F900F900F900F900E94DD10EE
:1025F000FDCF843008F0C0C0683008F0BDC0433063
:1026000008F0BAC04130E9F120F0423009F481C04D
:102610000895813091F028F08230D9F0833029F18B
:1026200008952AB381E090E002C0880F991F6A954F
:10263000E2F7809582238ABB089527B381E090E07A
:1026400002C0880F991F6A95E2F78095822387BBA5
:10265000089524B381E090E002C0880F991F6A9525
:10266000E2F78095822384BB089521B381E090E056
:1026700002C0880F991F6A95E2F78095822381BB7B
:1026800008958130B1F028F0823019F1833089F15A
:1026900008952AB381E090E002C0880F991F6A95DF
:1026A000E2F7982F909592239ABB9BB3892B8BBB13
:1026B000089527B381E090E002C0880F991F6A95C2
:1026C000E2F7982F9095922397BB98B3892B88BBFC
:1026D000089524B381E090E002C0880F991F6A95A5
:1026E000E2F7982F9095922394BB95B3892B85BBE5
:1026F000089521B381E090E002C0880F991F6A9588
:10270000E2F7982F9095922391BB92B3892B82BBCD
:102710000895813089F028F08230C9F0833011F1BA
:1027200008952AB381E090E002C0880F991F6A954E
:10273000E2F7822B8ABB089527B381E090E002C0C4
:10274000880F991F6A95E2F7822B87BB089524B3FF
:1027500081E090E002C0880F991F6A95E2F7822B12
:1027600084BB089521B381E090E002C0880F991FD7
:102770006A95E2F7822B81BB0895683008F06CC03F
:10278000813001F130F08230B1F1833009F44CC076
:102790000895442359F02BB381E090E002C0880FE4
:1027A000991F6A95E2F7822B8BBB08952BB381E0CA
:1027B00090E002C0880F991F6A95E2F78095822306
:1027C0008BBB0895442359F028B381E090E002C008
:1027D000880F991F6A95E2F7822B88BB089528B36A
:1027E00081E090E002C0880F991F6A95E2F780951A
:1027F000822388BB0895442359F025B381E090E0FB
:1028000002C0880F991F6A95E2F7822B85BB089555
:1028100025B381E090E002C0880F991F6A95E2F726
:102820008095822385BB0895442359F022B381E02B
:1028300090E002C0880F991F6A95E2F7822B82BB55
:10284000089522B381E090E002C0880F991F6A9535
:10285000E2F78095822382BB0895683098F5813035
:1028600089F028F08230C9F0833011F108952BB33C
:1028700081E090E002C0880F991F6A95E2F78227F5
:102880008BBB089528B381E090E002C0880F991FA8
:102890006A95E2F7822788BB089525B381E090E02E
:1028A00002C0880F991F6A95E2F7822785BB0895B9
:1028B00022B381E090E002C0880F991F6A95E2F789
:1028C000822782BB0895683008F050C08130C1F083
:1028D00028F0823039F18330B9F14AC049B321E0A0
:1028E00030E0C90102C0880F991F6A95E2F7242FD2
:1028F00030E02823392381E0232BD9F580E00895A7
:1029000046B321E030E0C90102C0880F991F6A95E3
:10291000E2F7242F30E02823392381E0232B49F5E7
:1029200080E0089543B321E030E0C90102C0880F80
:10293000991F6A95E2F7242F30E02823392381E09C
:10294000232BB9F480E0089540B321E030E0C901C1
:1029500002C0880F991F6A95E2F7242F30E02823E0
:10296000392381E0232B29F480E0089580E0089545
:1029700080E008951F920F920FB60F9211248F934B
:102980009F93AF93BF938091840590918505A0910B
:102990008605B09187050196A11DB11D8093840520
:1029A00090938505A0938605B0938705BF91AF915D
:1029B0009F918F910F900FBE0F901F9018958EB51D
:1029C0008A608EBD87E08BBD80ED8ABD89B780614E
:1029D00089BF78940895F89421E009C06091840536
:1029E00070918505809186059091870520E02111E1
:1029F000F5CF789408955058BB27AA270E94131545
:102A00000C9486160E94781638F00E947F1620F0EB
:102A100039F49F3F19F426F40C9475160EF4E095E2
:102A2000E7FB0C946F16E92F0E94971658F3BA171C
:102A3000620773078407950720F079F4A6F50C94D4
:102A4000B9160EF4E0950B2EBA2FA02D0B01B9018B
:102A500090010C01CA01A0011124FF27591B99F014
:102A6000593F50F4503E68F11A16F040A22F232F20
:102A7000342F4427585FF3CF469537952795A79570
:102A8000F0405395C9F77EF41F16BA0B620B730B17
:102A9000840BBAF09150A1F0FF0FBB1F661F771F88
:102AA000881FC2F70EC0BA0F621F731F841F48F43D
:102AB000879577956795B795F7959E3F08F0B0CFC6
:102AC0009395880F08F09927EE0F979587950895AD
:102AD0000E944B1608F481E008950E9481150C9421
:102AE00086160E947F1658F00E94781640F029F44E
:102AF0005F3F29F00C946F1651110C94BA160C9488
:102B000075160E94971668F39923B1F3552391F334
:102B1000951B550BBB27AA2762177307840738F04C
:102B20009F5F5F4F220F331F441FAA1FA9F335D0A9
:102B30000E2E3AF0E0E832D091505040E695001C5D
:102B4000CAF72BD0FE2F29D0660F771F881FBB1F17
:102B5000261737074807AB07B0E809F0BB0B802DF5
:102B6000BF01FF2793585F4F3AF09E3F510578F021
:102B70000C946F160C94BA165F3FE4F3983ED4F3AE
:102B8000869577956795B795F7959F5FC9F7880FF5
:102B9000911D9695879597F90895E1E0660F771F47
:102BA000881FBB1F621773078407BA0720F0621BD8
:102BB000730B840BBA0BEE1F88F7E09508950E9403
:102BC0009F1688F09F5798F0B92F9927B751B0F00A
:102BD000E1F0660F771F881F991F1AF0BA95C9F7A1
:102BE00014C0B13091F00E94B916B1E008950C9470
:102BF000B916672F782F8827B85F39F0B93FCCF323
:102C0000869577956795B395D9F73EF4909580951D
:102C1000709561957F4F8F4F9F4F0895E89409C03D
:102C200097FB3EF490958095709561957F4F8F4FFF
:102C30009F4F9923A9F0F92F96E9BB279395F69515
:102C4000879577956795B795F111F8CFFAF4BB0F93
:102C500011F460FF1BC06F5F7F4F8F4F9F4F16C0F7
:102C6000882311F096E911C0772321F09EE8872F81
:102C7000762F05C0662371F096E8862F70E060E03D
:102C80002AF09A95660F771F881FDAF7880F9695B6
:102C9000879597F90895990F0008550FAA0BE0E85A
:102CA000FEEF16161706E807F907C0F0121613060E
:102CB000E407F50798F0621B730B840B950B39F44E
:102CC0000A2661F0232B242B252B21F408950A26B4
:102CD00009F4A140A6958FEF811D811D089597F9F4
:102CE0009F6780E870E060E008959FEF80EC0895B2
:102CF00000240A94161617061806090608950024DB
:102D00000A9412161306140605060895092E039454
:102D1000000C11F4882352F0BB0F40F4BF2B11F4C8
:102D200060FF04C06F5F7F4F8F4F9F4F089557FD27
:102D30009058440F551F59F05F3F71F04795880F29
:102D400097FB991F61F09F3F79F0879508951216C0
:102D500013061406551FF2CF4695F1DF08C016166C
:102D600017061806991FF1CF86957105610508941D
:102D70000895E894BB2766277727CB0197F9089534
:102D80000E944B1608F48FEF08950E94D8160C94F9
:102D900086160E94781638F00E947F1620F0952340
:102DA00011F00C946F160C94751611240C94BA162D
:102DB0000E94971670F3959FC1F3950F50E0551F31
:102DC000629FF001729FBB27F00DB11D639FAA2780
:102DD000F00DB11DAA1F649F6627B00DA11D661FCF
:102DE000829F2227B00DA11D621F739FB00DA11DF0
:102DF000621F839FA00D611D221F749F3327A00DAA
:102E0000611D231F849F600D211D822F762F6A2F45
:102E100011249F5750409AF0F1F088234AF0EE0FAA
:102E2000FF1FBB1F661F771F881F91505040A9F7D7
:102E30009E3F510580F00C946F160C94BA165F3FBC
:102E4000E4F3983ED4F3869577956795B795F79513
:102E5000E7959F5FC1F7FE2B880F911D969587958B
:102E600097F908950E949F16E8F09E37E8F096398A
:102E7000B8F49E3848F4672F782F8827985FF9CFE9
:102E800086957795679593959539D0F3B62FB17060
:102E90006B0F711D811D20F487957795679593952C
:102EA0000C9456170C9471170C94BA16882371F46D
:102EB000772321F09850872B762F07C0662311F4D3
:102EC00099270DC09051862B70E060E02AF09A950A
:102ED000660F771F881FDAF7880F9695879597F901
:102EE00008959F3F31F0915020F48795779567952D
:102EF000B795880F911D9695879597F90895DB01F1
:102F00008F939F930E94C317BF91AF91A29F800D93
:102F1000911DA39F900DB29F900D11240895052E31
:102F200097FB1EF400940E94A61757FD07D00E943D
:102F3000CE1707FC03D04EF40C94A617509540957D
:102F4000309521953F4F4F4F5F4F08959095809555
:102F5000709561957F4F8F4F9F4F0895EE0FFF1F24
:102F60000590F491E02D0994A29FB001B39FC00198
:102F7000A39F700D811D1124911DB29F700D811DA5
:102F80001124911D08950E94B417A59F900DB49F20
:102F9000900DA49F800D911D11240895A1E21A2E79
:102FA000AA1BBB1BFD010DC0AA1FBB1FEE1FFF1FED
:102FB000A217B307E407F50720F0A21BB30BE40B3D
:102FC000F50B661F771F881F991F1A9469F7609584
:102FD0007095809590959B01AC01BD01CF0108953E
:102FE000FB01DC018D91019080190110D9F3990B3F
:102FF0000895AEE0B0E0EFEFF7E10C94E61A0D892A
:103000001E8986E08C831A8309838FEF9FE79E8356
:103010008D83AE01475E5F4F6F89788DCE0101963B
:103020000E944718EF81F885E00FF11F10822E965D
:10303000E4E00C94021BAEE0B0E0E1E2F8E10C94B5
:10304000E61A8C01FA0186E08C831A83098377FFE4
:1030500002C060E070E8CB0101979E838D83A901D7
:10306000BF01CE0101960E9447184D815E8157FD38
:103070000AC02F813885421753070CF49A01F801D2
:10308000E20FF31F10822E96E4E00C94021BABE0DB
:10309000B0E0EDE4F8E10C94D81A6C017B018A01F0
:1030A000FC0117821682838181FFCCC1CE0101967B
:1030B0003C01F6019381F70193FD859193FF819186
:1030C0007F01882309F4BAC1853239F493FD8591D3
:1030D00093FF81917F01853229F4B60190E00E942F
:1030E0003E1AE7CF912C212C312CFFE1F315D8F0BB
:1030F0008B3279F038F4803279F08332A1F4232DC9
:1031000020611DC08D3261F0803369F4232D216070
:1031100016C0832D8260382EE32DE4603E2E2AC037
:10312000F32DF8601DC037FC2DC020ED280F2A308C
:1031300040F08E32B9F436FC81C1232D2064322E4A
:1031400019C036FE06C08AE0989E200D1124922EEA
:1031500011C0EAE02E9E200D1124222EF32DF062E4
:103160003F2E08C08C3621F4832D8068382E02C093
:10317000883641F4F70193FD859193FF81917F019A
:103180008111B3CF982F9F7D9554933028F40C5F15
:103190001F4F9FE399830DC0833631F0833771F061
:1031A000833509F059C021C0F801808189830E5F01
:1031B0001F4F88248394912C530113C02801F2E0FF
:1031C0004F0E511CF801A080B18036FE03C0692D5E
:1031D00070E002C06FEF7FEFC5010E94331A4C010F
:1031E0008201F32DFF773F2E16C0280122E0420E08
:1031F000511CF801A080B18036FE03C0692D70E03B
:1032000002C06FEF7FEFC5010E94281A4C01F32D19
:10321000F0683F2E820133FC1BC0822D90E088169F
:103220009906B0F4B60180E290E00E943E1A2A941A
:10323000F4CFF50137FC859137FE81915F01B6012E
:1032400090E00E943E1A21102A9421E0821A9108EF
:103250008114910471F7E8C0843611F0893641F584
:10326000F80137FE07C060817181828193810C5F14
:103270001F4F08C060817181072E000C880B990BCD
:103280000E5F1F4FF32DFF763F2E97FF09C09095DD
:103290008095709561957F4F8F4F9F4FF0683F2EBF
:1032A0002AE030E0A3010E947A1A882E861845C0D1
:1032B000853731F4232D2F7EB22E2AE030E025C051
:1032C000932D997FB92E8F36C1F018F4883579F097
:1032D000B5C0803719F0883721F0B0C0E92FE06120
:1032E000BE2EB4FE0DC0FB2DF460BF2E09C034FE0F
:1032F0000AC0292F2660B22E06C028E030E005C0A3
:1033000020E130E002C020E132E0F801B7FE07C062
:1033100060817181828193810C5F1F4F06C0608143
:10332000718180E090E00E5F1F4FA3010E947A1A26
:10333000882E8618FB2DFF773F2E36FE0DC0232DDD
:103340002E7FA22E891458F434FE0BC032FC09C023
:10335000832D8E7EA82E05C0B82CA32C03C0B82CBC
:1033600001C0B92CA4FE0FC0FE01E80DF11D808143
:10337000803321F49A2D997EA92E09C0A2FE06C0A1
:10338000B394B39404C08A2D867809F0B394A3FC57
:1033900011C0A0FE06C0B21488F4280C922C9B1811
:1033A0000EC0B21460F4B60180E290E00E943E1AB2
:1033B000B394F7CFB21418F42B1802C0982C212C18
:1033C000A4FE10C0B60180E390E00E943E1AA2FE67
:1033D00017C0A1FC03C088E790E002C088E590E038
:1033E000B6010CC08A2D867859F0A1FE02C08BE28E
:1033F00001C080E2A7FC8DE2B60190E00E943E1A77
:10340000891438F4B60180E390E00E943E1A9A9441
:10341000F7CF8A94F301E80DF11D8081B60190E0A9
:103420000E943E1A8110F5CF222009F442CEB60147
:1034300080E290E00E943E1A2A94F6CFF60186813F
:10344000978102C08FEF9FEF2B96E2E10C94F41A64
:10345000FC010590615070400110D8F7809590955F
:103460008E0F9F1F0895FC01615070400190011064
:10347000D8F7809590958E0F9F1F08950F931F93F7
:10348000CF93DF93FB01238121FD03C08FEF9FEFDB
:103490002CC022FF16C046815781248135814217F6
:1034A000530744F4A081B1819D012F5F3F4F3183C9
:1034B00020838C93268137812F5F3F4F378326836C
:1034C00014C08B01EC01FB010084F185E02D09950E
:1034D000892BE1F6D80116968D919C91179701964C
:1034E00017969C938E931697CE01DF91CF911F91E3
:1034F0000F910895FA01AA27283051F1203181F166
:10350000E8946F936E7F6E5F7F4F8F4F9F4FAF4FEB
:10351000B1E03ED0B4E03CD0670F781F891F9A1FFE
:10352000A11D680F791F8A1F911DA11D6A0F711DB2
:10353000811D911DA11D20D009F468943F912AE0BE
:10354000269F11243019305D3193DEF6CF010895A6
:10355000462F4770405D4193B3E00FD0C9F7F6CFD7
:10356000462F4F70405D4A3318F0495D31FD40529F
:10357000419302D0A9F7EACFB4E0A6959795879535
:1035800077956795BA95C9F7009761057105089514
:103590009B01AC010A2E06945795479537952795C0
:1035A000BA95C9F7620F731F841F951FA01D089558
:1035B0002F923F924F925F926F927F928F929F9243
:1035C000AF92BF92CF92DF92EF92FF920F931F9331
:1035D000CF93DF93CDB7DEB7CA1BDB0B0FB6F894E2
:1035E000DEBF0FBECDBF09942A88398848885F8422
:1035F0006E847D848C849B84AA84B984C884DF8093
:10360000EE80FD800C811B81AA81B981CE0FD11D76
:103610000FB6F894DEBF0FBECDBFED010895F8944C
:02362000FFCFDA
:103622000000030201000002060100000005010083
:103632000000020100000006010000000701000076
:10364200020301000001000100000202000000016B
:10365200040000000103000000000000000100005F
:103662000307000002040000020505526576657238
:103672007365004368616E676520737461746520C9
:1036820066726F6D205B25735D20746F205B2573FE
:103692005D2E004261636B0045646765004573748B
:1036A200696D617465416E676C650052657665721D
:1036B2007365416E64526F740052657475726E0068
:1036C200DD00EB00F9004C3A20256C6420523A20D0
:1036D200256C64204572723A20256C64204465662C
:1036E20053703A20256C64205069644F75743A20F7
:1036F200256C640046696768740045786563757473
:1037020065546163746963004C6F6F70004C696E3D
:1037120065003A0148014D01D3004D616368696E4D
:103722006500436F6E666967757265642E0042615B
:103732007474657279003C6C696E653A20666C3A05
:1037420025642066723A256420626C3A2564206200
:10375200723A25643E203C646973743A206C3A25BF
:1037620064206C643A256420663A25642072643AC7
:10377200256420723A2564205B623A25645D3E200E
:103782003C626174743A2025642E256425645620B7
:1037920025643E203C73746172743A2025643E2095
:1037A2003C657854696D653A2025646D733E00432B
:1037B2006865636B426174744C766C004368656340
:1037C2006B53746172744D6F640044657653746117
:1037D20074496E64005461637469637353657474ED
:1037E2000057616974466F72537461727400537446
:1037F2006F7000EF01FC010A021502210234012E52
:1038020002010000010001000001000101000100AD
:10381200010100000001526F746174696E674363B5
:103822007700526F74617465436377416E64476FCA
:103832000046756C6C526F74617465476F00526F0D
:10384200746174654377416E64476F00526F7461AF
:1038520074696E67437700526F74617465416E6478
:1038620057616974005374616E6462790056026232
:103872000271027E028C0297028902A502427574CD
:10388200746F6E0044697374616E6365004C6564A5
:10389200004D6F746F720043616E6E6F74206164CD
:1038A20064207461736B2C204D6178207461736B9A
:1038B20073206E756D6265722E0053636865647560
:1038C2006C6572005461736B2061646465643A20B4
:1038D20025732E00656E61626C65640064697361B4
:1038E200626C6564002573207461736B2025732EEE
:1038F2000053746172744D6F64756C65005B25389A
:103902006C755D20005B25735D20005B252E3136D2
:10391200735D203A20000D0A001B5B323B33366D8B
:1039220044656275671B5B323B33376D001B5B324C
:103932003B33376D20496E666F1B5B323B33376D0D
:10394200001B5B323B33326D2020204F6B1B5B32FE
:103952003B33376D001B5B323B33356D2057617251
:103962006E1B5B323B33376D001B5B323B33316D79
:103972004572726F721B5B323B33376D001B5B32D9
:103982003B33316D466174616C1B5B323B33376D87
:103992000059036D0381039503A903BD0353757099
:1039A2006572206C6F6F702E2E2E004D61696E0055
:00000001FF
